:020000040053A7
:10F000004252434D63666744000000000A0000005E
:10F01000060104D1F35300FE00008546F746212186
:10F020002121212062616420736F757263652066FF
:10F030006C61736820726561640A002121212121BD
:10F0400020726561642065666C6173680A00212125
:10F05000212121206261642065666C6173682072E1
:10F060006561640A002121212121206261642075EB
:10F070007064617465206C656E6774682072656188
:10F08000642066726F6D2065666C6173680A00218A
:10F090002121212120696D616765206C656E67748F
:10F0A000680A0021212121212062616420736F758B
:10F0B00072636520666C61736820726561642C20E0
:10F0C00031737420626C6F636B0A0021212121214E
:10F0D000206261642065726173650A00212121212B
:10F0E00021206261642077726974650A0021212100
:10F0F0002121206661696C656420746F20636F70E4
:10F100007920696D616765206461746120746F2086
:10F11000656E640A00212121212120616C6C20642C
:10F12000617461207472616E7366657272656420C9
:10F13000746F2065666C6173680A002121212121AA
:10F14000204552524F522065786974696E67207766
:10F15000696365645F6669726D776172655F75701A
:10F16000646174655F636F70795F73666C61736807
:10F170000A000000C2F6DEB408B58D480090FF22F8
:10F1800069464FF4BC70CDF698F694F7B8F308BD15
:10F1900010B50446D8F6E0F52046D8F6F6F5854CCD
:10F1A000552020702046D8F633F6002811D020785C
:10F1B000C82802D16078642803D0BDE81040D8F692
:10F1C00073B67D49EC2008707C48017841F001015C
:10F1D000017010BD7A48C069A0F5A0007047794958
:10F1E000086070474FF4A270704770B50446002560
:10F1F00073F7B7F16D1C44F8040B042DF8DB70BDF8
:10F200002DE9F0410D46012614464FF4A27102F19A
:10F210001807022D05D0012D06D000263046BDE886
:10F22000F08104F1280001E004F12C008046204622
:10F2300040F7BAF6256038463C46FFF7D6FF8022F5
:10F24000214640469CF7C5F7E8E738B502464FF43B
:10F25000A2746B4621464FF448504BF79CF1BDF821
:10F26000001019B9A04201D1012038BD002038BDDD
:10F27000F8B504465448007808B9CCF660F16B46FE
:10F2800022464FF4A2714FF448504BF792F1C5B2A9
:10F29000BDF80000E8B923684FF48C7104F118063A
:10F2A000012B05D0022B05D02820ADF8000010E07E
:10F2B0002C3400E02834204640F776F68022314690
:10F2C00020469CF786F7BDF8000010B90DB101206B
:10F2D000F8BD0020F8BD2DE9F84F9046DDE90A524F
:10F2E0001E46914652F8083B0024012B02D0022B07
:10F2F00033D040E099F8284009F12C0A174688B924
:10F3000025E02CB93B461A46012150469DF7B7F03F
:10F31000385D16F8011B484005F8010B3855641C90
:10F3200004F00F04B8F10108EBD213E02CB93B460E
:10F330001A46012150469DF7A2F016F8010B395DDF
:10F34000414005F8011B3855641C04F00F04B8F166
:10F350000108EBD289F828400CE0002313605160CB
:10F360009360D16009F128003346414600959AF731
:10F3700048F400B901242046BDE8F88F4860704782
:10F380004068704710B5012032F5B3FC16F71DF642
:10F390000E490120087010BD0C4910B500200870FE
:10F3A00016F715F6BDE81040002032F5A2BC0000AB
:10F3B000FEE7FEE7F20B2000B4582000CC582000F6
:10F3C0002C0520004C582000786320007C0520008C
:10F3D0000148024B184700BF9DF55300DFF1530071
:10F3E00070B504460D461E46064B984732462946E0
:10F3F0002046054B984718B10448054B98472820EC
:10F4000070BD00BF75F153004B3A0D001EF0530064
:10F41000CF390D002DE9F04F87B00025474B0595FA
:10F420009847474B474C484F064698472A46202165
:10F430002B462520A047454B454C984729464FF47D
:10F440000070B847804688B129464FF40070B8472D
:10F45000814658B13F48A0474FF4007241463046BC
:10F460003D4B9847054630B13C48A0473C48A04733
:10F4700007B0BDE8F08F04223A4B414605A89847F3
:10F48000059B394A1A3B934201D93848EDE7384881
:10F49000A04700952A464FF40073364D494606F5BD
:10F4A000F730A847AB46F0B906F500770390059D05
:10F4B000A7EB060A554511D9A5EB0A05B5F5007F5E
:10F4C00028BF4FF40075039B009300222B46414652
:10F4D00007F5F730D84740B12748A047059B53456B
:10F4E00016D92648C1E72648BFE74FF400713846D1
:10F4F000244B984708B12448EFE738462A4641464E
:10F50000224B984707F500770028D0D02048E4E741
:10F510004FF4007130461B4B984708B11A48A4E7D6
:10F520004FF4007249463046184B984708B11848C6
:10F530009BE71848A047184B984797E7D5F1530029
:10F5400035390D0047390D00D11D000075F153000C
:10F55000CF390D003BF053004B3A0D004EF05300F5
:10F560003BF15300316D0000E6FF030065F05300EE
:10F570008FF05300E1F353001EF05300EDF0530001
:10F58000A3F053006F3A0D00CBF053005D3A0D002D
:10F59000DCF0530015F1530079F15300042808B54D
:10F5A0000BD100214FF44060054B984728B1054B23
:10F5B00000F6FF309847044B9847002008BD00BF75
:0CF5C000D11D00001BF0530015F4530097
:040000050053F3D1E0
:00000001FF
