:020000040053A7
:10F000004252434D63666744000000000A0000005E
:10F01000060104E9F35300FE00008546F74621216E
:10F020002121212062616420736F757263652066FF
:10F030006C61736820726561640A002121212121BD
:10F0400020726561642065666C6173680A00212125
:10F05000212121206261642065666C6173682072E1
:10F060006561640A002121212121206261642075EB
:10F070007064617465206C656E6774682072656188
:10F08000642066726F6D2065666C6173680A00218A
:10F090002121212120696D616765206C656E67748F
:10F0A000680A0021212121212062616420736F758B
:10F0B00072636520666C61736820726561642C20E0
:10F0C00031737420626C6F636B0A0021212121214E
:10F0D000206261642065726173650A00212121212B
:10F0E00021206261642077726974650A0021212100
:10F0F0002121206661696C656420746F20636F70E4
:10F100007920696D616765206461746120746F2086
:10F11000656E640A00212121212120616C6C20642C
:10F12000617461207472616E7366657272656420C9
:10F13000746F2065666C6173680A002121212121AA
:10F14000204552524F522065786974696E67207766
:10F15000696365645F6669726D776172655F75701A
:10F16000646174655F636F70795F73666C61736807
:10F170000A000000C2F6DEB408B593480090FF22F2
:10F1800069464FF4BC70CDF698F694F7B8F308BD15
:10F1900010B50446D8F6E0F52046D8F6F6F58B4CC7
:10F1A000552020702046D8F633F6002811D020785C
:10F1B000C82802D16078642803D0BDE81040D8F692
:10F1C00073B68349EC2008708248017841F0010150
:10F1D000017010BD8048C069A0F5A00070477F494C
:10F1E000086070474FF4A270704770B50446002560
:10F1F00073F7B7F16D1C44F8040B042DF8DB70BDF8
:10F200002DE9F0410D46012614464FF4A27102F19A
:10F210001807022D05D0012D06D000263046BDE886
:10F22000F08104F1280001E004F12C008046204622
:10F2300040F7BAF6256038463C46FFF7D6FF8022F5
:10F24000214640469CF7C5F7E8E738B502464FF43B
:10F25000A2746B4621464FF448504BF79CF1BDF821
:10F26000001019B9A04201D1012038BD002038BDDD
:10F27000F8B504465A48007808B9CCF660F16B46F8
:10F2800022464FF4A2714FF448504BF792F1C5B2A9
:10F29000BDF80000E8B923684FF48C7104F118063A
:10F2A000012B05D0022B05D02820ADF8000010E07E
:10F2B0002C3400E02834204640F776F68022314690
:10F2C00020469CF786F7BDF8000010B90DB101206B
:10F2D000F8BD0020F8BD08B569464FF448504BF71B
:10F2E00075F1BDF8000008B1002008BD012008BD7F
:10F2F0002DE9F84F9046DDE90A521E46914652F834
:10F30000083B0024012B02D0022B33D040E099F8B7
:10F31000284009F12C0A174688B925E02CB93B464C
:10F320001A46012150469DF7AAF0385D16F8011BD8
:10F33000484005F8010B3855641C04F00F04B8F17F
:10F340000108EBD213E02CB93B461A460121504686
:10F350009DF795F016F8010B395D414005F8011B4A
:10F360003855641C04F00F04B8F10108EBD289F899
:10F3700028400CE00023136051609360D16009F1D4
:10F3800028003346414600959AF73BF400B9012422
:10F390002046BDE8F88F486070474068704710B558
:10F3A000012032F552FB16F710F60E4901200870C5
:10F3B00010BD0C4910B50020087016F708F6BDE81E
:10F3C0001040002032F541BBFEE7FEE7F20B2000C3
:10F3D000B4582000CC5820002C0520004C582000A8
:10F3E000786320007C0520000148024B184700BFCD
:10F3F000CDF55300DFF1530070B504460D461E46AF
:10F40000064B9847064B324629462046984718B186
:10F410000448054B9847282070BD00BF75F1530084
:10F420004B3A0D001EF05300CF390D002DE9F04F7F
:10F4300089B000264C4B079698474C4B4C4C039098
:10F4400098473246202133462520A047494BDFF814
:10F450007881494C984731464FF40070C0470746C1
:10F4600088B131464FF40070C047814658B14348D7
:10F47000A0470398424B4FF400723946984706461E
:10F4800030B14048A0474048A04709B0BDE8F08FE0
:10F490003E4B0422394607A89847079B3C4A1A3B33
:10F4A000934201D93B48EDE7039B3B4803F5F73A0C
:10F4B000A047009632464FF40073384E49465046F6
:10F4C000B0470496002839D03548DBE7A3EB06089F
:10F4D000B8F5007F059B009328BF4FF40078049D8A
:10F4E0004346002239460AEB0600A84730B12D48B2
:10F4F000A047079BB34219D92B48C3E7039B03EBF3
:10F50000060B4FF40071294B5846984708B128481C
:10F51000EEE7284B424639465846984708B12648F8
:10F52000E6E706F50076079BB342CFD803981F4B5A
:10F530004FF40071984728B11D48A3E74FF40076B7
:10F540000590F0E703981B4B4FF40072494698472B
:10F55000054608B1184895E71848A047184B2846B3
:10F560009847184B98478EE7D5F1530035390D0071
:10F5700047390D0075F15300CF390D003BF05300B2
:10F580004B3A0D004EF053003BF15300316D00003B
:10F59000E6FF030065F053008FF05300F9F35300CA
:10F5A000A3F053001EF05300EDF053006F3A0D002E
:10F5B000CBF053005D3A0D00DCF0530015F1530021
:10F5C000D7F2530079F15300D11D0000042808B58B
:10F5D0000BD1074B00214FF44060984728B1054BF1
:10F5E00000F6FF309847044B9847002008BD00BF45
:0CF5F000D11D00001BF053002DF453004F
:040000050053F3E9C8
:00000001FF
