:020000040053A7
:10F000004252434D63666744000000000A0000005E
:10F0100006010479F45300FE00008546F7462121DD
:10F020002121212062616420736F757263652066FF
:10F030006C61736820726561640A002121212121BD
:10F040002062616420646563727970740A00212112
:10F050002121212077696365645F6669726D77613C
:10F0600072655F7570646174655F636F70795F6608
:10F070006C6173680A0021212121212062616420D2
:10F08000616C6C6F6320666F722073656375726567
:10F0900020636F6E746578740A002121212121207C
:10F0A000636F756C64206E6F7420726573746F7219
:10F0B000652073656375726520636F6E746578741F
:10F0C0000A00212121212120676F74206578746551
:10F0D000726E616C2073746F72616765206B657905
:10F0E0000A00212121212120726561642065666C5E
:10F0F0006173680A00212121212120626164206559
:10F10000666C61736820726561640A0021212121A7
:10F11000212062616420757064617465206C656E85
:10F1200067746820726561642066726F6D20656621
:10F130006C6173680A00212121212120696D6167BA
:10F1400065206C656E6774680A00212121212120E9
:10F1500062616420736F7572636520666C617368A9
:10F1600020726561642C2031737420626C6F636B54
:10F170000A002121212121206261642065726173CE
:10F18000650A0021212121212062616420777269B2
:10F1900074650A002121212121206661696C656462
:10F1A00020746F20636F707920696D6167652064DA
:10F1B00061746120746F20656E640A002121212131
:10F1C0002120616C6C2064617461207472616E73C3
:10F1D00066657272656420746F2065666C61736821
:10F1E0000A002121212121204552524F52206578C9
:10F1F0006974696E672077696365645F6669726DBB
:10F20000776172655F7570646174655F636F707953
:10F210005F73666C6173680A00000000C2F68AB40E
:10F2200008B58D480090FF2269464FF4BC70CDF6BA
:10F2300044F694F764F308BD10B50446D8F68CF58F
:10F240002046D8F6A2F5854C552020702046D8F6E9
:10F25000DFF5002811D02078C82802D16078642812
:10F2600003D0BDE81040D8F61FB67D49EC200870E9
:10F270007C48017841F00101017010BD7A48C069F5
:10F28000A0F5A00070477949086070474FF4A2705C
:10F29000704770B50446002573F763F16D1C44F8A0
:10F2A000040B042DF8DB70BD2DE9F0410D4601265D
:10F2B00014464FF4A27102F11807022D05D0012D5A
:10F2C00006D000263046BDE8F08104F1280001E0B8
:10F2D00004F12C008046204640F766F6256038464B
:10F2E0003C46FFF7D6FF8022214640469CF771F747
:10F2F000E8E738B502464FF4A2746B4621464FF456
:10F3000048504BF748F1BDF8001019B9A04201D19F
:10F31000012038BD002038BDF8B5044654480078B7
:10F3200008B9CCF60CF16B4622464FF4A2714FF4AB
:10F3300048504BF73EF1C5B2BDF80000E8B923686C
:10F340004FF48C7104F11806012B05D0022B05D067
:10F350002820ADF8000010E02C3400E028342046CE
:10F3600040F722F68022314620469CF732F7BDF85E
:10F37000000010B90DB10120F8BD0020F8BD2DE945
:10F38000F84F9046DDE90A521E46914652F8083B76
:10F390000024012B02D0022B33D040E099F8284002
:10F3A00009F12C0A174688B925E02CB93B461A46C4
:10F3B000012150469DF763F0385D16F8011B484067
:10F3C00005F8010B3855641C04F00F04B8F101086E
:10F3D000EBD213E02CB93B461A46012150469DF76B
:10F3E0004EF016F8010B395D414005F8011B385508
:10F3F000641C04F00F04B8F10108EBD289F828402E
:10F400000CE00023136051609360D16009F1280083
:10F410003346414600959AF7F4F300B9012420469B
:10F42000BDE8F88F486070474068704710B501200C
:10F4300032F531FB16F7C9F50E490120087010BDF1
:10F440000C4910B50020087016F7C1F5BDE8104052
:10F45000002032F520BB0000FEE7FEE7F20B2000A3
:10F46000B4582000CC5820002C0520004C58200017
:10F47000786320007C0520000148024B184700BF3C
:10F48000D5F6530087F2530073B50C461E46054669
:10F490000E4B984722460E4B314628469847B042BD
:10F4A000024605D00B480C4B9847282002B070BD8F
:10F4B000069B2946CDE9004300202346074CA04780
:10F4C00008B90748EFE70020F0E700BF1DF253003E
:10F4D00015380D001EF05300CF390D007FF3530097
:10F4E0003BF053002DE9F04F87B00025584B0595B0
:10F4F0009847584B584C594F804698472A462B46B8
:10F5000020212520A047564C0F210620A0470D2181
:10F510000920A0470E210B20A04710211120A04751
:10F520005048514CA047514B98475148514B984730
:10F5300029464FF40070B847064670B129464FF48B
:10F540000070B847814640B14B4B9847294605901B
:10F55000B847824630B94948A0474948A04707B054
:10F56000BDE8F08F474B984708B94748F4E747484C
:10F57000A0474748A047474B4FF4007231464046EA
:10F580009847054608B14448E6E7444B0422314613
:10F5900005A89847059B424A1A3B934201D9414826
:10F5A000DAE74148A0472A462846CDF800A03F4D5B
:10F5B0004FF400734946A8470395002837D03C48CC
:10F5C000CAE77F1BB7F5007F3B46CDF800A028BFF8
:10F5D0004FF40073039F0293002231462846B84738
:10F5E00030B13448A047059BAB4218D93248B3E745
:10F5F00008EB050B314B4FF400715846984708B1A2
:10F600002F48EFE7029A2F4B31465846984708B1EA
:10F610002D48E7E705F50075059FAF42D1D8274B88
:10F620004FF400714046984720B1254894E74FF4C5
:10F630000075F1E7234B4FF4007249464046984766
:10F6400008B1214888E72148A047214B984784E723
:10F650007DF2530035390D0047390D00D11D0000F2
:10F66000713408004EF05300CF390D001DF25300E5
:10F67000001BB70039F253008DF2530076F05300AF
:10F68000E2F1530019F353009AF05300C2F0530013
:10F69000E2F053004B3A0D00F5F05300316D0000DD
:10F6A000E6FF03000CF1530036F1530089F45300D8
:10F6B0004AF153001EF0530094F153006F3A0D00CD
:10F6C00072F153005D3A0D0083F15300BCF1530019
:10F6D00021F25300042808B50BD1074B00214FF449
:10F6E0004060984728B1054B00F6FF309847044B1F
:10F6F0009847002008BD00BFD11D00001BF053003B
:04F70000E5F45300D9
:040000050053F47937
:00000001FF
