:020000040053A7
:10F000004252434D63666744000000000A0000005E
:10F01000060104F9F35300FE00008546F74621215E
:10F020002121212062616420736F757263652066FF
:10F030006C61736820726561640A002121212121BD
:10F040002077696365645F6669726D776172655F79
:10F050007570646174655F636F70795F666C61730E
:10F06000680A0021212121212072656164206566E2
:10F070006C6173680A0021212121212062616420D2
:10F0800065666C61736820726561640A00212121E4
:10F0900021212062616420757064617465206C6553
:10F0A0006E67746820726561642066726F6D20659A
:10F0B000666C6173680A00212121212120696D613C
:10F0C0006765206C656E6774680A00212121212123
:10F0D0002062616420736F7572636520666C617372
:10F0E0006820726561642C2031737420626C6F63D8
:10F0F0006B0A002121212121206261642065726157
:10F1000073650A0021212121212062616420777228
:10F110006974650A002121212121206661696C65DD
:10F120006420746F20636F707920696D616765205A
:10F130006461746120746F20656E640A002121216E
:10F14000212120616C6C2064617461207472616E95
:10F150007366657272656420746F2065666C617396
:10F16000680A002121212121204552524F52206559
:10F17000786974696E672077696365645F66697230
:10F180006D776172655F7570646174655F636F70E0
:10F19000795F73666C6173680A000000C2F6CAB4D6
:10F1A00008B58D480090FF2269464FF4BC70CDF63B
:10F1B00084F694F7A4F308BD10B50446D8F6CCF550
:10F1C0002046D8F6E2F5854C552020702046D8F62A
:10F1D0001FF6002811D02078C82802D16078642852
:10F1E00003D0BDE81040D8F65FB67D49EC2008702A
:10F1F0007C48017841F00101017010BD7A48C06976
:10F20000A0F5A00070477949086070474FF4A270DC
:10F21000704770B50446002573F7A3F16D1C44F8E0
:10F22000040B042DF8DB70BD2DE9F0410D460126DD
:10F2300014464FF4A27102F11807022D05D0012DDA
:10F2400006D000263046BDE8F08104F1280001E038
:10F2500004F12C008046204640F7A6F6256038468B
:10F260003C46FFF7D6FF8022214640469CF7B1F787
:10F27000E8E738B502464FF4A2746B4621464FF4D6
:10F2800048504BF788F1BDF8001019B9A04201D1E0
:10F29000012038BD002038BDF8B504465448007838
:10F2A00008B9CCF64CF16B4622464FF4A2714FF4EC
:10F2B00048504BF77EF1C5B2BDF80000E8B92368AD
:10F2C0004FF48C7104F11806012B05D0022B05D0E8
:10F2D0002820ADF8000010E02C3400E0283420464F
:10F2E00040F762F68022314620469CF772F7BDF85F
:10F2F000000010B90DB10120F8BD0020F8BD2DE9C6
:10F30000F84F9046DDE90A521E46914652F8083BF6
:10F310000024012B02D0022B33D040E099F8284082
:10F3200009F12C0A174688B925E02CB93B461A4644
:10F33000012150469DF7A3F0385D16F8011B4840A7
:10F3400005F8010B3855641C04F00F04B8F10108EE
:10F35000EBD213E02CB93B461A46012150469DF7EB
:10F360008EF016F8010B395D414005F8011B385548
:10F37000641C04F00F04B8F10108EBD289F82840AE
:10F380000CE00023136051609360D16009F1280004
:10F390003346414600959AF734F400B901242046DB
:10F3A000BDE8F88F486070474068704710B501208D
:10F3B00032F59FFC16F709F60E490120087010BDC2
:10F3C0000C4910B50020087016F701F6BDE8104092
:10F3D000002032F58EBC0000FEE7FEE7F20B2000B5
:10F3E000B4582000CC5820002C0520004C58200098
:10F3F000786320007C0520000148024B184700BFBD
:10F40000FDF5530007F2530070B50E461C46054645
:10F41000074B9847074B3246214628469847A0425B
:10F4200004D00548054B9847282070BD0020FCE714
:10F430009DF1530015380D001EF05300CF390D001B
:10F440002DE9F04F87B00025504B05959847504B5C
:10F45000504C514F804698472A462B462021252064
:10F46000A0474E4C0F210620A0470D210920A047A0
:10F470000E210B20A04710211120A0474848494CDD
:10F48000A047494B98474948494B984729464FF46C
:10F490000070B847064688B129464FF40070B84757
:10F4A000814658B14348A047434B4FF40072314660
:10F4B00040469847054630B14048A0474048A047DD
:10F4C00007B0BDE8F08F3F4B0422314605A89847AE
:10F4D000059B3D4A1A3B934201D93C48EDE73C4825
:10F4E000A04700952A4628464FF40073394D4946F7
:10F4F000A8470395002837D03748DEE77F1BB7F5CC
:10F50000007F3B46CDF800B028BF4FF40073039F47
:10F510000293002231462846B84730B12F48A04711
:10F52000059BAB4218D92E48C7E708EB050A2D4BBF
:10F530004FF400715046984708B12B48EFE7029A04
:10F540002A4B31465046984708B12948E7E705F568
:10F550000075059FAF42D1D8224B4FF40071404651
:10F56000984728B12048A8E74FF400758346F0E794
:10F570001E4B4FF4007249464046984708B11C485C
:10F580009BE71C48A0471C4B984797E7FDF15300A9
:10F5900035390D0047390D00D11D000071340800C8
:10F5A0003BF05300CF390D009DF15300001BB70015
:10F5B000B9F1530063F053004B3A0D0076F053005D
:10F5C00063F15300316D0000E6FF03008DF053003E
:10F5D000B7F0530009F45300CBF053001EF0530072
:10F5E00015F153006F3A0D00F3F053005D3A0D0032
:10F5F00004F153003DF15300A1F15300042808B574
:10F600000BD1074B00214FF44060984728B1054BC0
:10F6100000F6FF309847044B9847002008BD00BF14
:0CF62000D11D00001BF0530041F453000A
:040000050053F3F9B8
:00000001FF
