:020000040053A7
:10F000004252434D63666744000000000A0000005E
:10F01000060104F5F35300FE00008546F746212162
:10F020002121212062616420736F757263652066FF
:10F030006C61736820726561640A002121212121BD
:10F040002077696365645F6669726D776172655F79
:10F050007570646174655F636F70795F666C61730E
:10F06000680A0021212121212072656164206566E2
:10F070006C6173680A0021212121212062616420D2
:10F0800065666C61736820726561640A00212121E4
:10F0900021212062616420757064617465206C6553
:10F0A0006E67746820726561642066726F6D20659A
:10F0B000666C6173680A00212121212120676F7429
:10F0C000206C656E0A0021212121212062616420CB
:10F0D000736F7572636520666C6173682072656119
:10F0E000642C2031737420626C6F636B0A002121E1
:10F0F000212121206261642065726173650A00210B
:10F1000021212121206261642077726974650A00DF
:10F110002121212121206661696C656420746F20A2
:10F12000636F707920696D61676520646174612027
:10F13000746F20656E640A00212121212120616CF9
:10F140006C2064617461207472616E7366657272A2
:10F15000656420746F2065666C6173680A00212104
:10F16000212121204552524F522065786974696EE1
:10F17000672077696365645F6669726D7761726540
:10F180005F7570646174655F636F70795F73666CDF
:10F190006173680A00000000C2F6CCB408B58D485F
:10F1A0000090FF2269464FF4BC70CDF686F694F7C6
:10F1B000A6F308BD10B50446D8F6CEF52046D8F61D
:10F1C000E4F5854C552020702046D8F621F600281D
:10F1D00011D02078C82802D16078642803D0BDE817
:10F1E0001040D8F661B67D49EC2008707C48017863
:10F1F00041F00101017010BD7A48C069A0F5A0007E
:10F2000070477949086070474FF4A270704770B535
:10F210000446002573F7A5F16D1C44F8040B042D7A
:10F22000F8DB70BD2DE9F0410D46012614464FF480
:10F23000A27102F11807022D05D0012D06D000267B
:10F240003046BDE8F08104F1280001E004F12C0013
:10F250008046204640F7A8F6256038463C46FFF732
:10F26000D6FF8022214640469CF7B3F7E8E738B541
:10F2700002464FF4A2746B4621464FF448504BF7B8
:10F280008AF1BDF8001019B9A04201D1012038BDA2
:10F29000002038BDF8B504465448007808B9CCF6CB
:10F2A0004EF16B4622464FF4A2714FF448504BF793
:10F2B00080F1C5B2BDF80000E8B923684FF48C7145
:10F2C00004F11806012B05D0022B05D02820ADF83B
:10F2D000000010E02C3400E02834204640F764F6AB
:10F2E0008022314620469CF774F7BDF8000010B923
:10F2F0000DB10120F8BD0020F8BD2DE9F84F904672
:10F30000DDE90A521E46914652F8083B0024012BC3
:10F3100002D0022B33D041E099F8284009F12C0AA1
:10F32000174688B925E02CB93B461A4601215046BC
:10F330009DF7A5F0385D16F8011B484005F8010B54
:10F340003855641C04F00F04B8F10108EBD213E047
:10F350002CB93B461A46012150469DF790F016F80D
:10F36000010B395D414005F8011B3855641C04F060
:10F370000F04B8F10108EBD289F828400DE0002312
:10F38000136051609360C2F80C8009F12800334685
:10F39000414600959AF735F400B901242046BDE8AE
:10F3A000F88F486070474068704710B5012032F50B
:10F3B00070FB16F70AF60E490120087010BD0C49C3
:10F3C00010B50020087016F702F6BDE810400020C6
:10F3D00032F55FBBFEE7FEE7F20B2000B4582000D9
:10F3E000CC5820002C0520004C58200078632000C9
:10F3F0007C0520000148024B184700BFFDF5530073
:10F4000003F2530070B50E461C460546074B98475D
:10F41000324621462846064B9847A04204D005486C
:10F42000054B9847282070BD0020FCE799F1530058
:10F4300015380D001EF05300CF390D002DE9F04FA7
:10F4400087B00025514B05959847514B514C524E72
:10F45000804698472A462B4620212520A0474F4C1E
:10F460000F210620A0470D210920A0470E210B20C7
:10F47000A04710211120A04749484A4CA0474A4BB9
:10F4800098474A484A4B984729464FF40070B0477E
:10F49000074688B129464FF40070B047814658B1FD
:10F4A0004448A0474FF4007239464046424B9847C3
:10F4B000054630B14148A0474148A04707B0BDE8E4
:10F4C000F08F04223F4B394605A89847059B3E4ADA
:10F4D0001A3B934201D93D48EDE73D48A0470095CE
:10F4E0002A4628464FF400733A4D4946A8470395EB
:10F4F000002830D03848DEE705EB080A4FF40071E9
:10F500005046364B984708B135481EE0029A354BB5
:10F5100039465046984708B1334816E005F500755E
:10F52000059EB54212D2761BB6F5007F3346CDF864
:10F5300000B028BF4FF40073002239462846039ECE
:10F540000293B0470028D7D02848A047059B9D428A
:10F5500005D22748AFE74FF400758346E0E74FF444
:10F56000007140461D4B984708B11D48A3E74FF472
:10F570000072494640461B4B984708B11A489AE723
:10F580001C48A0471C4B984796E700BFF9F1530071
:10F5900035390D0047390D00D11D000071340800C8
:10F5A0003BF05300CF390D0099F15300001BB70019
:10F5B000B5F1530063F053004B3A0D0076F0530061
:10F5C0005EF15300316D0000E6FF03008DF0530043
:10F5D000B7F0530005F45300C6F053006F3A0D0026
:10F5E000EEF053005D3A0D00FFF053001EF05300A3
:10F5F00010F1530038F153009DF15300042808B571
:10F600000BD100214FF44060054B984728B1054BC2
:10F6100000F6FF309847044B9847002008BD00BF14
:0CF62000D11D00001BF053003DF453000E
:040000050053F3F5BC
:00000001FF
