:020000040053A7
:10F000004252434D63666744000000000A0000005E
:10F01000060104CDF35300FE00008546F74621218A
:10F020002121212062616420736F757263652066FF
:10F030006C61736820726561640A002121212121BD
:10F0400020726561642065666C6173680A00212125
:10F05000212121206261642065666C6173682072E1
:10F060006561640A002121212121206261642075EB
:10F070007064617465206C656E6774682072656188
:10F08000642066726F6D2065666C6173680A00218A
:10F090002121212120676F74206C656E0A002121D7
:10F0A0002121212062616420736F7572636520667F
:10F0B0006C61736820726561642C20317374206206
:10F0C0006C6F636B0A002121212121206261642081
:10F0D00065726173650A002121212121206261642A
:10F0E0002077726974650A0021212121212066613F
:10F0F000696C656420746F20636F707920696D613D
:10F100006765206461746120746F20656E640A0015
:10F11000212121212120616C6C20646174612074A3
:10F1200072616E7366657272656420746F206566C5
:10F130006C6173680A002121212121204552524F20
:10F14000522065786974696E672077696365645FCA
:10F150006669726D776172655F7570646174655F11
:10F16000636F70795F73666C6173680A00000000FA
:10F17000C2F6E0B408B58D480090FF2269464FF40E
:10F18000BC70CDF69AF694F7BAF308BD10B50446F4
:10F19000D8F6E2F52046D8F6F8F5854C55202070D3
:10F1A0002046D8F635F6002811D02078C82802D19C
:10F1B0006078642803D0BDE81040D8F675B67D4964
:10F1C000EC2008707C48017841F00101017010BD0D
:10F1D0007A48C069A0F5A000704779490860704777
:10F1E0004FF4A270704770B50446002573F7B9F16B
:10F1F0006D1C44F8040B042DF8DB70BD2DE9F041C3
:10F200000D46012614464FF4A27102F11807022D93
:10F2100005D0012D06D000263046BDE8F08104F16E
:10F22000280001E004F12C008046204640F7BCF69F
:10F23000256038463C46FFF7D6FF802221464046EF
:10F240009CF7C7F7E8E738B502464FF4A2746B465F
:10F2500021464FF448504BF79EF1BDF8001019B904
:10F26000A04201D1012038BD002038BDF8B50446C8
:10F270005448007808B9CCF662F16B4622464FF448
:10F28000A2714FF448504BF794F1C5B2BDF800009D
:10F29000E8B923684FF48C7104F11806012B05D0EE
:10F2A000022B05D02820ADF8000010E02C3400E03F
:10F2B0002834204640F778F68022314620469CF7D5
:10F2C00088F7BDF8000010B90DB10120F8BD00208D
:10F2D000F8BD2DE9F84F9046DDE90A521E469146E9
:10F2E00052F8083B0024012B02D0022B33D041E01E
:10F2F00099F8284009F12C0A174688B925E02CB95D
:10F300003B461A46012150469DF7B9F0385D16F884
:10F31000011B484005F8010B3855641C04F00F042C
:10F32000B8F10108EBD213E02CB93B461A46012193
:10F3300050469DF7A4F016F8010B395D414005F8E1
:10F34000011B3855641C04F00F04B8F10108EBD21E
:10F3500089F828400DE00023136051609360C2F8E3
:10F360000C8009F128003346414600959AF749F48C
:10F3700000B901242046BDE8F88F48607047406816
:10F38000704710B5012032F584FB16F71EF60E49C2
:10F390000120087010BD0C4910B50020087016F748
:10F3A00016F6BDE81040002032F573BBFEE7FEE71D
:10F3B000F20B2000B4582000CC5820002C0520006F
:10F3C0004C582000786320007C0520000148024B47
:10F3D000184700BF99F55300DBF1530070B50446A0
:10F3E0000D461E46064B9847324629462046054B99
:10F3F000984718B10448054B9847282070BD00BFB6
:10F4000071F153004B3A0D001EF05300CF390D003F
:10F410002DE9F04F87B00025474B05959847474B9E
:10F42000474C484F064698472A4620212B46252020
:10F43000A047454B454C984729464FF40070B847C4
:10F44000804688B129464FF40070B847814658B1CC
:10F450003F48A0474FF40072414630463D4B984725
:10F46000054630B13C48A0473C48A04707B0BDE83E
:10F47000F08F04223A4B414605A89847059B394A2C
:10F480001A3B934201D93848EDE73848A047009528
:10F490002A464FF40073364D494606F5F730A84723
:10F4A000AB46F0B906F500770390059DA7EB060A79
:10F4B000554511D9A5EB0A05B5F5007F28BF4FF4D6
:10F4C0000075039B009300222B46414607F5F73059
:10F4D000D84740B12748A047059B534516D9264831
:10F4E000C1E72648BFE74FF400713846244B9847E0
:10F4F00008B12448EFE738462A464146224B984750
:10F5000007F500770028D0D02048E4E74FF40071D9
:10F5100030461B4B984708B11A48A4E74FF40072D5
:10F5200049463046184B984708B118489BE7184899
:10F53000A047184B984797E7D1F1530035390D0094
:10F5400047390D00D11D000071F15300CF390D0076
:10F550003BF053004B3A0D004EF0530036F1530090
:10F56000316D0000E6FF030065F053008FF053009B
:10F57000DDF353001EF05300E8F053009EF05300FB
:10F580006F3A0D00C6F053005D3A0D00D7F05300FE
:10F5900010F1530075F15300042808B50BD1002178
:10F5A0004FF44060054B984728B1054B00F6FF30FB
:10F5B0009847044B9847002008BD00BFD11D0000AC
:08F5C0001BF0530011F453008D
:040000050053F3CDE4
:00000001FF
