:020000040053A7
:10F000004252434D63666744000000000A0000005E
:10F0100006010469F55300FE00008546F7462121EC
:10F02000212121206261642065726173650A0021DB
:10F030002121212120626164206572617365320A99
:10F040000021212121212062616420777269746589
:10F050000A0021212121212062616420736F7572D1
:10F06000636520666C61736820726561640A0021C3
:10F0700021212121206261642064656372797074AA
:10F080000A0021212121212077696365645F666977
:10F09000726D776172655F7570646174655F636FCF
:10F0A00070795F666C6173680A002121212121203B
:10F0B00062616420616C6C6F6320666F722073659F
:10F0C0006375726520636F6E746578740A00212120
:10F0D00021212120636F756C64206E6F742072652E
:10F0E00073746F72652073656375726520636F6EEC
:10F0F000746578740A00212121212120676F742012
:10F1000065787465726E616C2073746F7261676587
:10F11000206B65790A002121212121204145532DB1
:10F1200043545220636F756C64206E6F7420726557
:10F13000616420666C6173680A002121212121200D
:10F140004145532D43545220656E64207265636FB0
:10F150007264206F66667365740A00212121212183
:10F16000204145532D43545220656E6420726563DF
:10F170006F7264206C656E0A0021212121212064B8
:10F180006964206E6F742066696E6420616E7920F8
:10F1900076616C6964204145532D43545220626C62
:10F1A0006F636B7320696E20666C6173680A00215F
:10F1B0002121212120636F756C64206E6F742061A2
:10F1C0006C6C6F63206275666665720A002121218E
:10F1D000212120636F756C64206E6F7420616C6CEC
:10F1E0006F6320627566666572320A0021212121F3
:10F1F0002120726561642065666C6173680A002174
:10F2000021212121206261642065666C6173682080
:10F21000726561640A00212121212120626164203C
:10F22000757064617465206C656E677468207265C2
:10F2300061642066726F6D2065666C6173680A0098
:10F24000212121212120676F7420696D616765206C
:10F250006C656E6774680A0021212121212062619A
:10F260006420736F7572636520666C6173682072C9
:10F270006561642C2031737420626C6F636B0A00CB
:10F28000212121212120626164206669727374202A
:10F29000626C636F6B2077726974650A00212121AB
:10F2A000212120616C6C2064617461207472616E34
:10F2B0007366657272656420746F2065666C617335
:10F2C000680A002121212121204552524F522065F8
:10F2D000786974696E672077696365645F666972CF
:10F2E0006D776172655F7570646174655F636F707F
:10F2F000795F73666C6173680A000000C2F61AB425
:10F300009048016821F4007101608F484FF00001BE
:10F3100081604FF005020260C1604FF0030181601F
:10F32000FEE710B50446D8F617F52046D8F62DF5B9
:10F33000864C552020702046D8F66AF5002811D05A
:10F340002078C82802D16078642803D0BDE8104036
:10F35000D8F6AAB57E49EC2008707E48017841F0C5
:10F360000101017010BD7C48C069A0F5A000704784
:10F370007A49086070474FF4A270704770B5044630
:10F38000002573F7EEF06D1C44F8040B042DF8DB38
:10F3900070BD2DE9F0410D46012614464FF4A271CF
:10F3A00002F11807022D05D0012D06D000263046A7
:10F3B000BDE8F08104F1280001E004F12C00804652
:10F3C000204640F7F1F5256038463C46FFF7D6FF6A
:10F3D0008022214640469CF7FCF6E8E738B5024615
:10F3E0004FF4A2746B4621464FF448504BF7D3F0CC
:10F3F000BDF8001019B9A04201D1012038BD00208C
:10F4000038BDF8B504465648007808B9CCF697F0F0
:10F410006B4622464FF4A2714FF448504BF7C9F0A7
:10F42000C5B2BDF80000E8B923684FF48C7104F14F
:10F430001806012B05D0022B05D02820ADF80000BE
:10F4400010E02C3400E02834204640F7ADF580224F
:10F45000314620469CF7BDF6BDF8000010B90DB14D
:10F460000120F8BD0020F8BD2DE9F84F9046DDE9F8
:10F470000A521E46914652F8083B0024012B02D046
:10F48000022B33D041E099F8284009F12C0A1746A5
:10F4900088B925E02CB93B461A46012150469CF715
:10F4A000EEF7385D16F8011B484005F8010B38559A
:10F4B000641C04F00F04B8F10108EBD213E02CB97E
:10F4C0003B461A46012150469CF7D9F716F8010B26
:10F4D000395D414005F8011B3855641C04F00F04E8
:10F4E000B8F10108EBD289F828400DE00023136041
:10F4F00051609360C2F80C8009F128003346414600
:10F5000000959AF77EF300B901242046BDE8F88FF4
:10F51000486070474068704710B5012032F511FA15
:10F5200016F753F50F490120087010BD0D4910B5AD
:10F530000020087016F74BF5BDE81040002032F5AA
:10F5400000BA00004881330000903200F20B200026
:10F55000B4582000CC5820002C0520004C58200026
:10F56000786320007C0520000148024B184700BF4B
:10F57000EDF8530071F35300F8B5C0F308030446E7
:10F580000F461646134DA3B91146134B984750B971
:10F59000A847324639462046104B984740B110489C
:10F5A000104B984703E010480E4B9847A847282077
:10F5B000F8BD00F5007020F4FF7020F00100A318E2
:10F5C0008342E5D94FF40071034B98470028DFD000
:10F5D0000648E9E7FDF253006F3A0D005D3A0D0071
:10F5E00041F05300CF390D001EF053002FF05300AF
:10F5F000F7B50C461D4607460E4B16469847224661
:10F60000294638460C4B9847A842024605D00B487D
:10F610000B4B9847282003B0F0BD089B3146CDE93D
:10F62000004300202346074CA04708B90648EFE7EF
:10F630000020F0E7FDF2530015380D0052F05300A2
:10F64000CF390D0069F453006FF053002DE9F04FEE
:10F6500089B000257A4B069598477A4B7A4C0795E6
:10F66000804698472A462B4620212520A047774CE4
:10F67000774E0F210620A0470D210920A0470E211B
:10F680000B20A04710211120A0477248724CA047C0
:10F69000724B98477248734B9847734B984729466B
:10F6A0000690B047039030B97048A0477048A04713
:10F6B00009B0BDE8F08F6F4B984708B96E48F4E782
:10F6C0006E48DFF824A2A0474FF400770795A946BB
:10F6D00000211020B047054648B96748684DA0474B
:10F6E00007A8A847049500283DD16648DDE7021D1C
:10F6F00008214846644B9847082801D06348EDE745
:10F700006B68B3F5802F09F1080901D96048E5E776
:10F71000AB68B3F5805F01D95E48DFE79F4238BF31
:10F720001F46002307A92B602846C5F80C90D04738
:10F7300007A8594B98476968079A8346DBF8040085
:10F7400088420BD907A92846544A904707AA594628
:10F750002846534B9847AB689944B9E7DBF800B0AB
:10F760009345EBD1F7E700213846B047054608B985
:10F770004C489AE700213846B047834608B94A48C2
:10F7800093E74A48A0474FF4007229464046484B49
:10F79000984708B1474888E70422474B294606A8FE
:10F7A0009847069B454A1A3B934201D944487CE757
:10F7B0004448DFF8E4A0DFF8E490434EA04707A8F0
:10F7C000D04707A90290C847039B0093029A029B67
:10F7D00002989B685268C0685946B047F0B90596D0
:10F7E00007A8049B984700280FDD07A8D04707A962
:10F7F0000646C847039B0093D6E901232946F068D3
:10F80000059FB84760B13148A047029B59469A68A6
:10F810002F4B4046984768B12E4846E72E4844E7AC
:10F82000D6E9010229464044294B98470028D7D001
:10F830002A48E9E72A48A0472A4B984736E700BFFD
:10F8400067F3530035390D0047390D007134080056
:10F85000D11D000082F05300CF390D00FDF253009E
:10F86000001BB70023F3530077F35300AAF05300B3
:10F87000C3F2530003F45300CEF05300F6F05300EC
:10F88000DBC1070079F1530015380D0016F1530064
:10F890003AF153005BF15300B9C107001DC10700E5
:10F8A000F5C00700AFF15300CDF15300ECF1530068
:10F8B0004B3A0D00FFF15300316D0000E6FF0300ED
:10F8C00016F2530040F25300F1F5530052F053008A
:10F8D00079F5530080F2530058F2530041F0530081
:10F8E0009DF2530001F353006DC10700042808B5D1
:10F8F0000BD100214FF44060054B984728B1054BD0
:10F9000000F6FF309847044B9847002008BD00BF21
:0CF91000D11D00001BF053004DF6530009
:040000050053F56946
:00000001FF
